S015000044494F5F4368616C6C656E67652E7372656351
S11300000C9432000C944F000C944F000C944F004D
S11300100C944F000C944F000C944F000C944F0020
S11300200C944F000C944F000C9485000C94AC007D
S11300300C944F000C944F000C944F000C944F0000
S11300400C944F000C944F000C944F000C944F00F0
S11300500C944F0027014C012C01320138013E0160
S11300604401470111241FBECFE5D8E0DEBFCDBF58
S113007010E0A0E6B0E0E6E9F3E002C005900D92DE
S1130080A236B107D9F720E0A2E6B0E001C01D9284
S1130090A836B207E1F70E94D3000C94C9010C946E
S11300A00000813089F028F08230C9F0833011F1EA
S11300B008958BB3962F909589238BBB442321F10C
S11300C08BB3682B6BBB089588B3962F90958923C7
S11300D088BB4423C9F088B3682B68BB089585B3F3
S11300E0962F9095892385BB442371F085B3682BA3
S11300F065BB089582B3962F9095892382BB4423D0
S113010019F082B3682B62BB08951F920F920FB649
S11301100F9211242F933F934F935F936F937F9389
S11301208F939F93AF93BF93EF93FF9340E061E06E
S113013082E00E945100FF91EF91BF91AF919F9196
S11301408F917F916F915F914F913F912F910F907C
S11301500FBE0F901F9018951F920F920FB60F921B
S113016011242F933F934F935F936F937F938F93B8
S11301709F93AF93BF93EF93FF934FEF61E082E0C0
S11301800E945100FF91EF91BF91AF919F918F9188
S11301907F916F915F914F913F912F910F900FBE7F
S11301A00F901F9018958FEF84BB15BA68EC86E406
S11301B00E9458018FB780688FBF68EC86E40E9464
S11301C0580168EB7BE080E090E00E94F20068EC6C
S11301D08EE10E94580168EB7BE080E090E00E9491
S11301E0F200EBCF0F931F938B019C01672B682BBD
S11301F0692B89F416C000000196883EE3E09E074F
S1130200D1F74F5F5F4F6F4F7F4F041715072607D6
S1130210370721F406C040E050E0BA0180E090E0E6
S1130220EACF1F910F910895EF920F9393B7692B23
S1130230862B83BF22BF0CBF4093600050E0483040
S1130240510550F5FA01E65DFF4F0C94B40110928C
S113025066001092630020C01092660080E88093CC
S113026063001AC01092660080E28093630014C099
S11302701092660080E9809363000EC010926600BD
S113028088E48093630008C01092660005C0109251
S1130290660089E08093630089B7E82AE9BE0F917C
S11302A0EF90089593B780916000892B83BF0895E0
S11302B0EF920F93CF93C82F88EE93E0689F90013D
S11302C0699F300D1124032E000C440B550B60E084
S11302D074E284EF90E00E9492018C2F90E0829F60
S11302E0B001839F700D929F700D11249B01369570
S11302F0279536952795ABE7B4E10E94BA01969508
S113030087950F2EF3E0EF2EF02D082F20E042E02A
S113031060E080E00E9414010E945201CF910F918D
S1130320EF900895A1E21A2EAA1BBB1BFD010DC07C
S1130330AA1FBB1FEE1FFF1FA217B307E407F50791
S113034020F0A21BB30BE40BF50B661F771F881F6D
S1130350991F1A9469F760957095809590959B0103
S1130360AC01BD01CF010895EE0FFF1F0590F4917C
S1130370E02D0994A29FB001B39FC001A39F700D0B
S1130380811D1124911DB29F700D811D1124911D99
S10903900895F894FFCF6C
S1050396F80069
S9030000FC
