:100000000C942A000C9434000C9434000C943400AA
:100010000C9434000C9434000C9434000C94340090
:100020000C9434000C9434000C9434000C94340080
:100030000C9434000C9434000C9434000C94340070
:100040000C9434000C9434000C9434000C94340060
:100050000C94340011241FBECFE5D8E0DEBFCDBF25
:100060000E941F020C94CF020C940000813041F0DA
:1000700028F0823039F0833039F008956ABB089552
:1000800067BB089564BB089561BB0895813041F05A
:1000900028F0823039F0833039F008956BBB089531
:1000A00068BB089565BB089562BB0895813041F037
:1000B00028F0823039F0833039F008C089B30895D0
:1000C00086B3089583B3089580B3089580E00895BA
:1000D000813089F028F08230C9F0833011F1089521
:1000E000411105C08AB3609568236ABB08958AB33D
:1000F000682B6ABB0895411105C087B360956823DA
:1001000067BB089587B3682B67BB0895411105C08D
:1001100084B36095682364BB089584B3682B64BB83
:100120000895411105C081B36095682361BB0895AE
:1001300081B3682B61BB0895813089F028F082304B
:10014000C9F0833011F108958BB3962F90958923D0
:100150008BBB442321F18BB3682B6BBB089588B311
:10016000962F9095892388BB4423C9F088B3682BC8
:1001700068BB089585B3962F9095892385BB44234A
:1001800071F085B3682B65BB089582B3962F909567
:10019000892382BB442319F082B3682B62BB089584
:1001A000813049F028F0823049F0833051F00CC0A2
:1001B00089B368230AC086B3682307C083B3682362
:1001C00004C080B3682301C060E081E0611101C018
:1001D00080E00895813089F028F08230C9F08330C2
:1001E00011F108954FEF60E181E00E94680040E066
:1001F00060E181E00E949C0008954FEF60E281E0A1
:100200000E94680040E060E281E00E949C00089546
:100210004FEF60E481E00E94680040E060E481E02C
:100220000E949C0008954FEF60E881E00E94680002
:1002300040E060E881E00E949C000895813061F018
:1002400028F0823079F0833099F008954FEF60E123
:1002500081E00E949C0008954FEF60E281E00E94DF
:100260009C0008954FEF60E481E00E949C00089597
:100270004FEF60E881E00E949C000895813061F0BA
:1002800028F0823079F0833099F0089540E060E101
:1002900081E00E949C00089540E060E281E00E94BD
:1002A0009C00089540E060E481E00E949C00089575
:1002B00040E060E881E00E949C00089580E00E9498
:1002C000570281E00E9457020F2EFDECEF2EF02D19
:1002D000F12C26C080E00E946F02612F80E00E9416
:1002E000910262E370E080E090E00E94AD0280E065
:1002F0000E94800281E00E946F02602F81E00E94D4
:10030000910262E370E080E090E00E94AD0281E043
:100310000E9480022197F1F6F39484E6F816C1F268
:10032000FE9C112D1124169516951695912F990F57
:10033000892F880F880F890F0F2D081BCAE0D0E086
:10034000C9CF81E00E94EA0000E081E00E9439020A
:10035000813059F564E170E080E090E00E94AD02E8
:1003600081E00E9439028130E1F40E941E01C5E063
:10037000D0E0102F68EC70E080E090E00E94AD02C9
:1003800081E00E943902813009F411E0219791F750
:100390001123D9F268EE73E080E090E00E94AD0294
:1003A000D4CF81E00E943E01D0CF81E00E943E0187
:1003B000CCCF81E00E941E0168EE73E080E090E007
:1003C0000E94AD0281E00E943E01089582E00E94F9
:1003D0001E0168EE73E080E090E00E94AD0282E0D2
:1003E0000E943E01089583E00E941E0168EE73E0C2
:1003F00080E090E00E94AD0283E00E943E010895FB
:1004000081E00E94EA0082E00E94EA0083E00E940C
:10041000EA0080E012E0D1E0C0E0813041F018F065
:10042000823049F0FACF0E94D9018D2FF6CF0E9479
:10043000E601812FF2CF0E94F3018C2FEECF40E036
:1004400060EE80E00E94680060EE80E00E9446005E
:1004500080E00E945600803A39F0803C19F08036E6
:1004600029F006C00E945E010E94A1010E940002C4
:10047000FFCF813059F028F0823069F0833081F06D
:1004800014C060E182E00E94D000089564E081E041
:100490000E94D000089564E080E00E94D00008959A
:1004A00068E080E00E94D000089580E00895CF9336
:1004B000C82F6FEF81E00E943600CC2319F0C130C5
:1004C00039F00BC04FEF64E083E00E94680005C084
:1004D0004FEF68E083E00E946800CF910895882381
:1004E00019F0813039F008954FEF64E083E00E9405
:1004F0009C0008954FEF68E083E00E949C000895FF
:10050000882319F0813039F0089540E064E083E0F9
:100510000E949C00089540E068E083E00E949C00F7
:100520000895CF93C62F882319F0813059F013C056
:1005300060E081E00E9446006C2F6F7081E00E94B5
:10054000460009C060E081E00E9446006C2F6F7099
:1005500081E00E944600CF9108950F931F938B0175
:100560009C01672B682B692B89F416C0000001964B
:10057000883EE3E09E07D1F74F5F5F4F6F4F7F4F9D
:10058000041715072607370721F406C040E050E09E
:10059000BA0180E090E0EACF1F910F910895F8949E
:0205A000FFCF8B
:00000001FF
