S015000044494F5F4368616C6C656E67652E7372656351
S11300000C942A000C9447000C9447000C9447006D
S11300100C9447000C9447000C9447000C94470040
S11300200C9447000C9447000C9447000C94710105
S11300300C9447000C9447000C9447000C94470020
S11300400C9447000C9447000C9447000C94470010
S11300500C94470011241FBECFE5D8E0DEBFCDBF0E
S113006010E0A0E6B0E0E4EFF5E002C005900D92E8
S1130070A236B107D9F720E0A2E6B0E001C01D9294
S1130080A236B207E1F70E9426020C94F8020C94FF
S11300900000813041F028F0823039F0833039F0AB
S11300A008956ABB089567BB089564BB089561BB56
S11300B00895813041F028F0823039F0833039F0EE
S11300C008956BBB089568BB089565BB089562BB32
S11300D00895813041F028F0823039F0833039F0CE
S11300E008C089B3089586B3089583B3089580B38F
S11300F0089580E00895813089F028F08230C9F0B5
S1130100833011F10895411105C08AB360956823C5
S11301106ABB08958AB3682B6ABB0895411105C070
S113012087B36095682367BB089587B3682B67BB63
S11301300895411105C084B36095682364BB089594
S113014084B3682B64BB0895411105C081B36095E5
S1130150682361BB089581B3682B61BB0895813026
S113016089F028F08230C9F0833011F108958BB3FF
S1130170962F909589238BBB442321F18BB3682B55
S11301806BBB089588B3962F9095892388BB44232D
S1130190C9F088B3682B68BB089585B3962F9095F2
S11301A0892385BB442371F085B3682B65BB08950F
S11301B082B3962F9095892382BB442319F082B38E
S11301C0682B62BB0895813049F028F0823049F0F1
S11301D0833051F00CC089B368230AC086B3682306
S11301E007C083B3682304C080B3682301C060E000
S11301F081E0611101C080E00895813089F028F028
S11302008230C9F0833011F108954FEF60E181E04D
S11302100E947B0040E060E181E00E94AF0008950D
S11302204FEF60E281E00E947B0040E060E281E009
S11302300E94AF0008954FEF60E481E00E947B00CC
S113024040E060E481E00E94AF0008954FEF60E871
S113025081E00E947B0040E060E881E00E94AF0002
S11302600895813061F028F0823079F0833099F07C
S113027008954FEF60E181E00E94AF0008954FEFD1
S113028060E281E00E94AF0008954FEF60E481E0F6
S11302900E94AF0008954FEF60E881E00E94AF0034
S11302A00895813061F028F0823079F0833099F03C
S11302B0089540E060E181E00E94AF00089540E0CD
S11302C060E281E00E94AF00089540E060E481E0D4
S11302D00E94AF00089540E060E881E00E94AF0012
S11302E0089585B38FEF85BB089580E00E946C026A
S11302F081E00E946C020F2EFDECEF2EF02DF12C0C
S113030022C080E00E948402612F80E00E94A60245
S113031084E190E00E94DE0280E00E94950281E088
S11303200E948402602F81E00E94A60284E190E092
S11303300E94DE0281E00E949502219711F7F39456
S113034084E6F816E1F2FE9C112D112416951695FB
S11303501695912F990F892F880F880F890F0F2DCC
S1130360081BCAE0D0E0CDCF81E00E94FD0000E090
S113037081E00E944E02813029F584E190E00E94E0
S1130380DE0281E00E944E028130C1F40E943101FC
S1130390C5E0D0E0102F88EC90E00E94DE0281E0FE
S11303A00E944E02813009F411E02197A1F7112334
S11303B0F9F288EE93E00E94DE02DACF81E00E9437
S11303C05101D6CF81E00E945101D2CF81E00E9439
S11303D0310188EE93E00E94DE0281E00E94510127
S11303E0089582E00E94310188EE93E00E94DE02CB
S11303F082E00E945101089583E00E94310188EE59
S113040093E00E94DE0283E00E945101089581E09E
S11304100E94FD0082E00E94FD0083E00E94FD0036
S113042080E012E0D1E0C0E0813041F018F0823089
S113043049F0FACF0E94E6018D2FF6CF0E94F10118
S1130440812FF2CF0E94FC018C2FEECF8FEF84BB63
S1130450EE24E39400E020E043E060E080E00E94CA
S1130460C2028FB780688FBF40E060EE80E00E94D8
S11304707B0060EE80E00E94590080E00E946900E9
S1130480803A39F0803C19F0803629F006C00E9489
S113049075010E94B4010E940702FFCF813059F018
S11304A028F0823069F0833081F014C060E182E08A
S11304B00E94E300089564E081E00E94E30008954F
S11304C064E080E00E94E300089568E080E00E9418
S11304D0E300089580E00895CF93C82F6FEF81E083
S11304E00E944900CC2319F0C13039F00BC04FEF02
S11304F064E083E00E947B0005C04FEF68E083E086
S11305000E947B00CF910895882319F0813039F03F
S113051008954FEF64E083E00E94AF0008954FEF29
S113052068E083E00E94AF000895882319F08130C9
S113053039F0089540E064E083E00E94AF0008953C
S113054040E068E083E00E94AF000895CF93C62F97
S1130550882319F0813059F013C060E081E00E94D3
S113056059006C2F6F7081E00E94590009C060E04F
S113057081E00E9459006C2F6F7081E00E94590045
S1130580CF910895EF920F9393B7692B682B63BFB4
S113059022BF883009F40CBF4093600089B7E82A71
S11305A0E9BE0F91EF90089593B780916000892B75
S11305B083BF089583B7887F83BF0895CF93DF9364
S11305C0EC010E94D4029E0121503109CD2B59F037
S11305D096E092BF08B600FEFDCF88B7816088BF61
S11305E021503109B0F70E94DA02DF91CF910895CA
S10705F0F894FFCFA9
S10505F4F80009
S9030000FC
