S015000044494F5F4368616C6C656E67652E7372656351
S11300000C942A000C9447000C9447000C94F100C3
S11300100C9447000C9447000C9447000C94470040
S11300200C9447000C9447000C9447000C9438013E
S11300300C9447000C9447000C9447000C94470020
S11300400C9447000C9447000C9447000C94470010
S11300500C94470011241FBECFE5D8E0DEBFCDBF0E
S113006010E0A0E6B0E0E6E1F7E002C005900D92F2
S1130070A236B107D9F720E0A2E6B0E001C01D9294
S1130080A736B207E1F70E9449010C9489030C9446
S11300900000813089F028F08230C9F0833011F1FA
S11300A00895411105C08AB3609568236ABB089519
S11300B08AB3682B6ABB0895411105C087B3609564
S11300C0682367BB089587B3682B67BB0895411104
S11300D005C084B36095682364BB089584B3682B1A
S11300E064BB0895411105C081B36095682361BB69
S11300F0089581B3682B61BB0895AF92CF92DF92CC
S1130100EF92FF920F931F93A12CC12CD12CE12CC1
S1130110F12C00E010E020E030E043E060E070EA21
S113012080E00E94A2018FB583608FBD8EB580618F
S11301308EBD4FEF60E183E00E9449004FEF60E223
S113014083E00E9449001F910F91FF90EF90DF9090
S1130150CF90AF9008958F929F92AF92BF92CF921B
S1130160DF92EF92FF92CF93C82F9A01AB0160E028
S113017074E284EF90E00E94670369017A018827A2
S11301809927821B930B9DBD8CBD6C2F70E080E082
S113019090E00E946E0220E030E048EC52E40E94BD
S11301A0CB014B015C01C701B6010E946C029B01AB
S11301B0AC01C501B4010E94FA020E943D026C190F
S11301C07D097BBD6ABD79BD68BD0E94C501CF9123
S11301D0FF90EF90DF90CF90BF90AF909F908F9063
S11301E008951F920F920FB60F9211242F933F93ED
S11301F04F935F936F937F938F939F93AF93BF932B
S1130200EF93FF9380916000813071F40E94950117
S11302108BB78F7D8BBF80E00E9488018BB7806293
S11302208BBF1092600013C0811111C00E94920113
S113023082B7809363008BB78F7D8BBF81E00E9470
S113024088018BB780628BBF81E080936000FF914F
S1130250EF91BF91AF919F918F917F916F915F913A
S11302604F913F912F910F900FBE0F901F901895B3
S11302701F920F920FB60F9211248F9380916200F8
S11302808F5F809362008F910F900FBE0F901F902D
S113029018950E947D0048EC50E060E070E086E430
S11302A00E94AB0068EE73E080E090E00E9466017B
S11302B044E650E060E070E08EE10E94AB0068EE3E
S11302C073E080E090E00E946601E5CF0F931F93F6
S11302D08B019C01672B682B692B89F416C00000E5
S11302E00196883EE3E09E07D1F74F5F5F4F6F4F63
S11302F07F4F041715072607370721F406C040E08F
S113030050E0BA0180E090E0EACF1F910F91089588
S1130310813021F484B7806484BF089584B78F7BCF
S113032084BF08950E949E0108950E949801089533
S113033093B780916100892B83BF089583B7887F29
S113034083BF0895AF92CF92DF92EF92FF920F9303
S11303501F93EEB5FFB56E2B7F2B682B7FBD6EBD53
S11303603DBD2CBD409366001BBD0ABDF9BCE8BC75
S1130370D7BCC6BC89B7A82AA9BE1F910F91FF900C
S1130380EF90DF90CF90AF9008959EB58091660076
S1130390892B8EBD08950E94DF010C94C0020E9437
S11303A0B90258F00E94B20240F029F45F3F29F0EC
S11303B00C94A90251110C94F4020C94AF020E9403
S11303C0D10268F39923B1F3552391F3951B550B8F
S11303D0BB27AA2762177307840738F09F5F5F4F14
S11303E0220F331F441FAA1FA9F335D00E2E3AF053
S11303F0E0E832D091505040E695001CCAF72BD06B
S1130400FE2F29D0660F771F881FBB1F26173707BB
S11304104807AB07B0E809F0BB0B802DBF01FF27ED
S113042093585F4F3AF09E3F510578F00C94A9021F
S11304300C94F4025F3FE4F3983ED4F386957795E9
S11304406795B795F7959F5FC9F7880F911D9695A6
S1130450879597F90895E1E0660F771F881FBB1F02
S1130460621773078407BA0720F0621B730B840BAF
S1130470BA0BEE1F88F7E09508950E94D90288F020
S11304809F5798F0B92F9927B751B0F0E1F0660F54
S1130490771F881F991F1AF0BA95C9F714C0B13095
S11304A091F00E94F302B1E008950C94F302672FD7
S11304B0782F8827B85F39F0B93FCCF386957795C4
S11304C06795B395D9F73EF49095809570956195AD
S11304D07F4F8F4F9F4F0895E89409C097FB3EF4D8
S11304E090958095709561957F4F8F4F9F4F99237D
S11304F0A9F0F92F96E9BB279395F69587957795FB
S11305006795B795F111F8CFFAF4BB0F11F460FFBA
S11305101BC06F5F7F4F8F4F9F4F16C0882311F012
S113052096E911C0772321F09EE8872F762F05C026
S1130530662371F096E8862F70E060E02AF09A95C1
S1130540660F771F881FDAF7880F9695879597F9B6
S1130550089597F99F6780E870E060E008959FEF41
S113056080EC089500240A94161617061806090646
S1130570089500240A941216130614060506089515
S1130580092E0394000C11F4882352F0BB0F40F49D
S1130590BF2B11F460FF04C06F5F7F4F8F4F9F4FDD
S11305A0089557FD9058440F551F59F05F3F71F05F
S11305B04795880F97FB991F61F09F3F79F08795C6
S11305C00895121613061406551FF2CF4695F1DF4F
S11305D008C0161617061806991FF1CF86957105DF
S11305E0610508940895E894BB2766277727CB0113
S11305F097F908950E940D030C94C0020E94B20260
S113060038F00E94B90220F0952311F00C94A9024D
S11306100C94AF0211240C94F4020E94D10270F3E2
S1130620959FC1F3950F50E0551F629FF001729F93
S1130630BB27F00DB11D639FAA27F00DB11DAA1FA2
S1130640649F6627B00DA11D661F829F2227B00DEF
S1130650A11D621F739FB00DA11D621F839FA00D7A
S1130660611D221F749F3327A00D611D231F849FCA
S1130670600D211D822F762F6A2F11249F57504021
S11306809AF0F1F088234AF0EE0FFF1FBB1F661F9C
S1130690771F881F91505040A9F79E3F510580F065
S11306A00C94A9020C94F4025F3FE4F3983ED4F353
S11306B0869577956795B795F795E7959F5FC1F709
S11306C0FE2B880F911D9695879597F90895A1E2C1
S11306D01A2EAA1BBB1BFD010DC0AA1FBB1FEE1FB8
S11306E0FF1FA217B307E407F50720F0A21BB30B03
S11306F0E40BF50B661F771F881F991F1A9469F77F
S113070060957095809590959B01AC01BD01CF01DA
S10907100895F894FFCFE8
S105071601F8E4
S9030000FC
